{
  "contractName": "Identity",
  "abi": [
    {
      "anonymous": false,
      "inputs": [
        {
          "indexed": true,
          "internalType": "string",
          "name": "din",
          "type": "string"
        }
      ],
      "name": "IdentityCreated",
      "type": "event"
    },
    {
      "anonymous": false,
      "inputs": [
        {
          "indexed": true,
          "internalType": "string",
          "name": "din",
          "type": "string"
        }
      ],
      "name": "IdentityUpdated",
      "type": "event"
    },
    {
      "inputs": [
        {
          "internalType": "uint256",
          "name": "",
          "type": "uint256"
        }
      ],
      "name": "citizenDINs",
      "outputs": [
        {
          "internalType": "string",
          "name": "",
          "type": "string"
        }
      ],
      "stateMutability": "view",
      "type": "function",
      "constant": true
    },
    {
      "inputs": [
        {
          "internalType": "string",
          "name": "",
          "type": "string"
        }
      ],
      "name": "citizens",
      "outputs": [
        {
          "internalType": "string",
          "name": "din",
          "type": "string"
        },
        {
          "internalType": "string",
          "name": "ssn",
          "type": "string"
        },
        {
          "internalType": "string",
          "name": "fullName",
          "type": "string"
        },
        {
          "internalType": "uint256",
          "name": "dateOfBirth",
          "type": "uint256"
        },
        {
          "internalType": "string",
          "name": "residentialAddress",
          "type": "string"
        },
        {
          "internalType": "bool",
          "name": "exists",
          "type": "bool"
        }
      ],
      "stateMutability": "view",
      "type": "function",
      "constant": true
    },
    {
      "inputs": [
        {
          "internalType": "string",
          "name": "_din",
          "type": "string"
        },
        {
          "internalType": "string",
          "name": "_ssn",
          "type": "string"
        },
        {
          "internalType": "string",
          "name": "_fullName",
          "type": "string"
        },
        {
          "internalType": "uint256",
          "name": "_dateOfBirth",
          "type": "uint256"
        },
        {
          "internalType": "string",
          "name": "_residentialAddress",
          "type": "string"
        }
      ],
      "name": "createIdentity",
      "outputs": [],
      "stateMutability": "nonpayable",
      "type": "function"
    },
    {
      "inputs": [
        {
          "internalType": "string",
          "name": "_din",
          "type": "string"
        },
        {
          "internalType": "string",
          "name": "_ssn",
          "type": "string"
        },
        {
          "internalType": "string",
          "name": "_fullName",
          "type": "string"
        },
        {
          "internalType": "uint256",
          "name": "_dateOfBirth",
          "type": "uint256"
        },
        {
          "internalType": "string",
          "name": "_residentialAddress",
          "type": "string"
        }
      ],
      "name": "updateIdentity",
      "outputs": [],
      "stateMutability": "nonpayable",
      "type": "function"
    },
    {
      "inputs": [],
      "name": "getIdentities",
      "outputs": [
        {
          "components": [
            {
              "internalType": "string",
              "name": "din",
              "type": "string"
            },
            {
              "internalType": "string",
              "name": "ssn",
              "type": "string"
            },
            {
              "internalType": "string",
              "name": "fullName",
              "type": "string"
            },
            {
              "internalType": "uint256",
              "name": "dateOfBirth",
              "type": "uint256"
            },
            {
              "internalType": "string",
              "name": "residentialAddress",
              "type": "string"
            },
            {
              "internalType": "bool",
              "name": "exists",
              "type": "bool"
            }
          ],
          "internalType": "struct Identity.Citizen[]",
          "name": "",
          "type": "tuple[]"
        }
      ],
      "stateMutability": "view",
      "type": "function",
      "constant": true
    }
  ],
  "bytecode": "0x608060405234801561000f575f80fd5b506115828061001d5f395ff3fe608060405234801561000f575f80fd5b5060043610610055575f3560e01c80630d98f5bb146100595780634cd5561f1461008e5780637775495a146100aa5780638e07f117146100c8578063e38212ee146100e4575b5f80fd5b610073600480360381019061006e9190610b86565b610114565b60405161008596959493929190610c79565b60405180910390f35b6100a860048036038101906100a39190610d1e565b610387565b005b6100b26104fc565b6040516100bf9190610fc1565b60405180910390f35b6100e260048036038101906100dd9190610d1e565b610848565b005b6100fe60048036038101906100f99190610fe1565b61095d565b60405161010b919061100c565b60405180910390f35b5f818051602081018201805184825260208301602085012081835280955050505050505f91509050805f01805461014a90611059565b80601f016020809104026020016040519081016040528092919081815260200182805461017690611059565b80156101c15780601f10610198576101008083540402835291602001916101c1565b820191905f5260205f20905b8154815290600101906020018083116101a457829003601f168201915b5050505050908060010180546101d690611059565b80601f016020809104026020016040519081016040528092919081815260200182805461020290611059565b801561024d5780601f106102245761010080835404028352916020019161024d565b820191905f5260205f20905b81548152906001019060200180831161023057829003601f168201915b50505050509080600201805461026290611059565b80601f016020809104026020016040519081016040528092919081815260200182805461028e90611059565b80156102d95780601f106102b0576101008083540402835291602001916102d9565b820191905f5260205f20905b8154815290600101906020018083116102bc57829003601f168201915b5050505050908060030154908060040180546102f490611059565b80601f016020809104026020016040519081016040528092919081815260200182805461032090611059565b801561036b5780601f106103425761010080835404028352916020019161036b565b820191905f5260205f20905b81548152906001019060200180831161034e57829003601f168201915b505050505090806005015f9054906101000a900460ff16905086565b5f8560405161039691906110c3565b90815260200160405180910390206005015f9054906101000a900460ff16156103f4576040517f08c379a00000000000000000000000000000000000000000000000000000000081526004016103eb90611123565b60405180910390fd5b5f808660405161040491906110c3565b9081526020016040518091039020905085815f01908161042491906112de565b508481600101908161043691906112de565b508381600201908161044891906112de565b508281600301819055508181600401908161046391906112de565b506001816005015f6101000a81548160ff021916908315150217905550600186908060018154018082558091505060019003905f5260205f20015f9091909190915090816104b191906112de565b50856040516104c091906110c3565b60405180910390207f53784635db5d3833b9b88af0a19f40002b6acb6570a403686c0b2aeb07f84fd860405160405180910390a2505050505050565b60605f60018054905067ffffffffffffffff81111561051e5761051d610a62565b5b60405190808252806020026020018201604052801561055757816020015b610544610a03565b81526020019060019003908161053c5790505b5090505f5b600180549050811015610840575f6001828154811061057e5761057d6113ad565b5b905f5260205f2001604051610593919061145a565b90815260200160405180910390206040518060c00160405290815f820180546105bb90611059565b80601f01602080910402602001604051908101604052809291908181526020018280546105e790611059565b80156106325780601f1061060957610100808354040283529160200191610632565b820191905f5260205f20905b81548152906001019060200180831161061557829003601f168201915b5050505050815260200160018201805461064b90611059565b80601f016020809104026020016040519081016040528092919081815260200182805461067790611059565b80156106c25780601f10610699576101008083540402835291602001916106c2565b820191905f5260205f20905b8154815290600101906020018083116106a557829003601f168201915b505050505081526020016002820180546106db90611059565b80601f016020809104026020016040519081016040528092919081815260200182805461070790611059565b80156107525780601f1061072957610100808354040283529160200191610752565b820191905f5260205f20905b81548152906001019060200180831161073557829003601f168201915b505050505081526020016003820154815260200160048201805461077590611059565b80601f01602080910402602001604051908101604052809291908181526020018280546107a190611059565b80156107ec5780601f106107c3576101008083540402835291602001916107ec565b820191905f5260205f20905b8154815290600101906020018083116107cf57829003601f168201915b50505050508152602001600582015f9054906101000a900460ff161515151581525050828281518110610822576108216113ad565b5b602002602001018190525080806108389061149d565b91505061055c565b508091505090565b5f8560405161085791906110c3565b90815260200160405180910390206005015f9054906101000a900460ff166108b4576040517f08c379a00000000000000000000000000000000000000000000000000000000081526004016108ab9061152e565b60405180910390fd5b5f80866040516108c491906110c3565b90815260200160405180910390209050848160010190816108e591906112de565b50838160020190816108f791906112de565b508281600301819055508181600401908161091291906112de565b508560405161092191906110c3565b60405180910390207f46b32dbff71c4c27c538aafaa50f0089fee161ed293402f861b115a9a9f2afb160405160405180910390a2505050505050565b6001818154811061096c575f80fd5b905f5260205f20015f91509050805461098490611059565b80601f01602080910402602001604051908101604052809291908181526020018280546109b090611059565b80156109fb5780601f106109d2576101008083540402835291602001916109fb565b820191905f5260205f20905b8154815290600101906020018083116109de57829003601f168201915b505050505081565b6040518060c001604052806060815260200160608152602001606081526020015f8152602001606081526020015f151581525090565b5f604051905090565b5f80fd5b5f80fd5b5f80fd5b5f80fd5b5f601f19601f8301169050919050565b7f4e487b71000000000000000000000000000000000000000000000000000000005f52604160045260245ffd5b610a9882610a52565b810181811067ffffffffffffffff82111715610ab757610ab6610a62565b5b80604052505050565b5f610ac9610a39565b9050610ad58282610a8f565b919050565b5f67ffffffffffffffff821115610af457610af3610a62565b5b610afd82610a52565b9050602081019050919050565b828183375f83830152505050565b5f610b2a610b2584610ada565b610ac0565b905082815260208101848484011115610b4657610b45610a4e565b5b610b51848285610b0a565b509392505050565b5f82601f830112610b6d57610b6c610a4a565b5b8135610b7d848260208601610b18565b91505092915050565b5f60208284031215610b9b57610b9a610a42565b5b5f82013567ffffffffffffffff811115610bb857610bb7610a46565b5b610bc484828501610b59565b91505092915050565b5f81519050919050565b5f82825260208201905092915050565b5f5b83811015610c04578082015181840152602081019050610be9565b5f8484015250505050565b5f610c1982610bcd565b610c238185610bd7565b9350610c33818560208601610be7565b610c3c81610a52565b840191505092915050565b5f819050919050565b610c5981610c47565b82525050565b5f8115159050919050565b610c7381610c5f565b82525050565b5f60c0820190508181035f830152610c918189610c0f565b90508181036020830152610ca58188610c0f565b90508181036040830152610cb98187610c0f565b9050610cc86060830186610c50565b8181036080830152610cda8185610c0f565b9050610ce960a0830184610c6a565b979650505050505050565b610cfd81610c47565b8114610d07575f80fd5b50565b5f81359050610d1881610cf4565b92915050565b5f805f805f60a08688031215610d3757610d36610a42565b5b5f86013567ffffffffffffffff811115610d5457610d53610a46565b5b610d6088828901610b59565b955050602086013567ffffffffffffffff811115610d8157610d80610a46565b5b610d8d88828901610b59565b945050604086013567ffffffffffffffff811115610dae57610dad610a46565b5b610dba88828901610b59565b9350506060610dcb88828901610d0a565b925050608086013567ffffffffffffffff811115610dec57610deb610a46565b5b610df888828901610b59565b9150509295509295909350565b5f81519050919050565b5f82825260208201905092915050565b5f819050602082019050919050565b5f82825260208201905092915050565b5f610e4882610bcd565b610e528185610e2e565b9350610e62818560208601610be7565b610e6b81610a52565b840191505092915050565b610e7f81610c47565b82525050565b610e8e81610c5f565b82525050565b5f60c083015f8301518482035f860152610eae8282610e3e565b91505060208301518482036020860152610ec88282610e3e565b91505060408301518482036040860152610ee28282610e3e565b9150506060830151610ef76060860182610e76565b5060808301518482036080860152610f0f8282610e3e565b91505060a0830151610f2460a0860182610e85565b508091505092915050565b5f610f3a8383610e94565b905092915050565b5f602082019050919050565b5f610f5882610e05565b610f628185610e0f565b935083602082028501610f7485610e1f565b805f5b85811015610faf5784840389528151610f908582610f2f565b9450610f9b83610f42565b925060208a01995050600181019050610f77565b50829750879550505050505092915050565b5f6020820190508181035f830152610fd98184610f4e565b905092915050565b5f60208284031215610ff657610ff5610a42565b5b5f61100384828501610d0a565b91505092915050565b5f6020820190508181035f8301526110248184610c0f565b905092915050565b7f4e487b71000000000000000000000000000000000000000000000000000000005f52602260045260245ffd5b5f600282049050600182168061107057607f821691505b6020821081036110835761108261102c565b5b50919050565b5f81905092915050565b5f61109d82610bcd565b6110a78185611089565b93506110b7818560208601610be7565b80840191505092915050565b5f6110ce8284611093565b915081905092915050565b7f4964656e7469747920616c7265616479206578697374730000000000000000005f82015250565b5f61110d601783610bd7565b9150611118826110d9565b602082019050919050565b5f6020820190508181035f83015261113a81611101565b9050919050565b5f819050815f5260205f209050919050565b5f6020601f8301049050919050565b5f82821b905092915050565b5f6008830261119d7fffffffffffffffffffffffffffffffffffffffffffffffffffffffffffffffff82611162565b6111a78683611162565b95508019841693508086168417925050509392505050565b5f819050919050565b5f6111e26111dd6111d884610c47565b6111bf565b610c47565b9050919050565b5f819050919050565b6111fb836111c8565b61120f611207826111e9565b84845461116e565b825550505050565b5f90565b611223611217565b61122e8184846111f2565b505050565b5b81811015611251576112465f8261121b565b600181019050611234565b5050565b601f8211156112965761126781611141565b61127084611153565b8101602085101561127f578190505b61129361128b85611153565b830182611233565b50505b505050565b5f82821c905092915050565b5f6112b65f198460080261129b565b1980831691505092915050565b5f6112ce83836112a7565b9150826002028217905092915050565b6112e782610bcd565b67ffffffffffffffff811115611300576112ff610a62565b5b61130a8254611059565b611315828285611255565b5f60209050601f831160018114611346575f8415611334578287015190505b61133e85826112c3565b8655506113a5565b601f19841661135486611141565b5f5b8281101561137b57848901518255600182019150602085019450602081019050611356565b868310156113985784890151611394601f8916826112a7565b8355505b6001600288020188555050505b505050505050565b7f4e487b71000000000000000000000000000000000000000000000000000000005f52603260045260245ffd5b5f81546113e681611059565b6113f08186611089565b9450600182165f811461140a576001811461141f57611451565b60ff1983168652811515820286019350611451565b61142885611141565b5f5b838110156114495781548189015260018201915060208101905061142a565b838801955050505b50505092915050565b5f61146582846113da565b915081905092915050565b7f4e487b71000000000000000000000000000000000000000000000000000000005f52601160045260245ffd5b5f6114a782610c47565b91507fffffffffffffffffffffffffffffffffffffffffffffffffffffffffffffffff82036114d9576114d8611470565b5b600182019050919050565b7f4964656e7469747920646f6573206e6f742065786973740000000000000000005f82015250565b5f611518601783610bd7565b9150611523826114e4565b602082019050919050565b5f6020820190508181035f8301526115458161150c565b905091905056fea2646970667358221220cd154c3660e7c769b29470aafb51c78a5debbb7eeafd939858913131e37f7b0364736f6c63430008140033",
  "immutableReferences": {},
  "source": "// SPDX-License-Identifier: MIT\npragma solidity ^0.8.0;\n\ncontract Identity {\n    struct Citizen {\n        string din; // Decentralized Identity Number\n        string ssn;\n        string fullName;\n        uint256 dateOfBirth;\n        string residentialAddress;\n        bool exists;\n    }\n\n    mapping(string => Citizen) public citizens;\n    string[] public citizenDINs;\n\n    event IdentityCreated(string indexed din);\n    event IdentityUpdated(string indexed din);\n\n    function createIdentity(\n        string memory _din,\n        string memory _ssn,\n        string memory _fullName,\n        uint256 _dateOfBirth,\n        string memory _residentialAddress\n    ) public {\n        require(!citizens[_din].exists, \"Identity already exists\");\n\n        Citizen storage citizen = citizens[_din];\n        citizen.din = _din;\n        citizen.ssn = _ssn;\n        citizen.fullName = _fullName;\n        citizen.dateOfBirth = _dateOfBirth;\n        citizen.residentialAddress = _residentialAddress;\n        citizen.exists = true;\n\n        citizenDINs.push(_din);\n\n        emit IdentityCreated(_din);\n    }\n\n    function updateIdentity(\n        string memory _din,\n        string memory _ssn,\n        string memory _fullName,\n        uint256 _dateOfBirth,\n        string memory _residentialAddress\n    ) public {\n        require(citizens[_din].exists, \"Identity does not exist\");\n\n        Citizen storage citizen = citizens[_din];\n        citizen.ssn = _ssn;\n        citizen.fullName = _fullName;\n        citizen.dateOfBirth = _dateOfBirth;\n        citizen.residentialAddress = _residentialAddress;\n\n        emit IdentityUpdated(_din);\n    }\n\n    function getIdentities() public view returns (Citizen[] memory) {\n        Citizen[] memory identities = new Citizen[](citizenDINs.length);\n\n        for (uint i = 0; i < citizenDINs.length; i++) {\n            identities[i] = citizens[citizenDINs[i]];\n        }\n\n        return identities;\n    }\n}\n",
  "sourcePath": "/Users/ricoledan/dev/projects/team-cookie-capstone/contracts/identity/Identity.sol",
  "compiler": {
    "name": "solc",
    "version": "0.8.20+commit.a1b79de6.Emscripten.clang"
  },
  "schemaVersion": "3.4.14",
  "updatedAt": "2023-07-11T05:50:18.972Z",
  "networkType": "ethereum",
  "devdoc": {
    "kind": "dev",
    "methods": {},
    "version": 1
  },
  "userdoc": {
    "kind": "user",
    "methods": {},
    "version": 1
  }
}